8=FIX.4.4|9=115|35=A|34=1|49=LPSimAuto4.streaming.server|52=20211012-11:59:11.288|56=LPSimAuto4.streaming.client|98=0|108=60|141=Y|10=224|8=FIX.4.4|9=183|35=W|34=2|49=LPSimAuto4.streaming.server|52=20211012-11:59:28.862|56=LPSimAuto4.streaming.client|55=EUR/USD|262=Leon|268=2|269=0|270=1.11111|271=1000000|269=1|270=1.22222|271=1000000|10=170|8=FIX.4.4|9=97|35=0|34=3|49=LPSimAuto4.streaming.server|52=20211012-12:00:29.668|56=LPSimAuto4.streaming.client|10=095|