8=FIX.4.2|9=115|35=A|34=1|49=LPSimAuto4.streaming.server|52=20210930-16:05:22.260|56=LPSimAuto4.streaming.client|98=0|108=60|141=Y|10=218|8=FIX.4.2|9=156|35=3|34=2|49=LPSimAuto4.streaming.server|52=20210930-16:05:22.314|56=LPSimAuto4.streaming.client|45=2|58=Out of order repeating group members|371=167|372=R|10=080|8=FIX.4.2|9=156|35=3|34=3|49=LPSimAuto4.streaming.server|52=20210930-16:05:22.315|56=LPSimAuto4.streaming.client|45=3|58=Out of order repeating group members|371=167|372=R|10=083|8=FIX.4.2|9=149|35=W|34=4|49=LPSimAuto4.streaming.server|52=20210930-16:05:27.964|56=LPSimAuto4.streaming.client|55=EUR/USD|262=Leon|268=1|269=0|270=1.1|271=1000000|10=132|8=FIX.4.2|9=122|35=5|34=5|49=LPSimAuto4.streaming.server|52=20210930-16:06:10.244|56=LPSimAuto4.streaming.client|58=Incorrect BeginString|10=087|8=FIX.4.2|9=122|35=5|34=6|49=LPSimAuto4.streaming.server|52=20210930-16:06:18.227|56=LPSimAuto4.streaming.client|58=Incorrect BeginString|10=097|